{
    "abi": [
        {
            "type": "constructor",
            "inputs": [
                {
                    "name": "_subId",
                    "type": "uint64",
                    "internalType": "uint64"
                },
                {
                    "name": "_callbackGasLimit",
                    "type": "uint32",
                    "internalType": "uint32"
                },
                {
                    "name": "_donId",
                    "type": "bytes32",
                    "internalType": "bytes32"
                },
                {
                    "name": "_router",
                    "type": "address",
                    "internalType": "address"
                }
            ],
            "stateMutability": "nonpayable"
        },
        {
            "type": "function",
            "name": "DEFAULT_ADMIN_ROLE",
            "inputs": [],
            "outputs": [
                {
                    "name": "",
                    "type": "bytes32",
                    "internalType": "bytes32"
                }
            ],
            "stateMutability": "view"
        },
        {
            "type": "function",
            "name": "getRoleAdmin",
            "inputs": [
                {
                    "name": "role",
                    "type": "bytes32",
                    "internalType": "bytes32"
                }
            ],
            "outputs": [
                {
                    "name": "",
                    "type": "bytes32",
                    "internalType": "bytes32"
                }
            ],
            "stateMutability": "view"
        },
        {
            "type": "function",
            "name": "grantRole",
            "inputs": [
                {
                    "name": "role",
                    "type": "bytes32",
                    "internalType": "bytes32"
                },
                {
                    "name": "account",
                    "type": "address",
                    "internalType": "address"
                }
            ],
            "outputs": [],
            "stateMutability": "nonpayable"
        },
        {
            "type": "function",
            "name": "handleOracleFulfillment",
            "inputs": [
                {
                    "name": "requestId",
                    "type": "bytes32",
                    "internalType": "bytes32"
                },
                {
                    "name": "response",
                    "type": "bytes",
                    "internalType": "bytes"
                },
                {
                    "name": "err",
                    "type": "bytes",
                    "internalType": "bytes"
                }
            ],
            "outputs": [],
            "stateMutability": "nonpayable"
        },
        {
            "type": "function",
            "name": "hasRole",
            "inputs": [
                {
                    "name": "role",
                    "type": "bytes32",
                    "internalType": "bytes32"
                },
                {
                    "name": "account",
                    "type": "address",
                    "internalType": "address"
                }
            ],
            "outputs": [
                {
                    "name": "",
                    "type": "bool",
                    "internalType": "bool"
                }
            ],
            "stateMutability": "view"
        },
        {
            "type": "function",
            "name": "renounceRole",
            "inputs": [
                {
                    "name": "role",
                    "type": "bytes32",
                    "internalType": "bytes32"
                },
                {
                    "name": "callerConfirmation",
                    "type": "address",
                    "internalType": "address"
                }
            ],
            "outputs": [],
            "stateMutability": "nonpayable"
        },
        {
            "type": "function",
            "name": "retryFailedRequest",
            "inputs": [
                {
                    "name": "_failedRequestId",
                    "type": "bytes32",
                    "internalType": "bytes32"
                }
            ],
            "outputs": [],
            "stateMutability": "nonpayable"
        },
        {
            "type": "function",
            "name": "revokeRole",
            "inputs": [
                {
                    "name": "role",
                    "type": "bytes32",
                    "internalType": "bytes32"
                },
                {
                    "name": "account",
                    "type": "address",
                    "internalType": "address"
                }
            ],
            "outputs": [],
            "stateMutability": "nonpayable"
        },
        {
            "type": "function",
            "name": "s_requestStorage",
            "inputs": [
                {
                    "name": "requestId",
                    "type": "bytes32",
                    "internalType": "bytes32"
                }
            ],
            "outputs": [
                {
                    "name": "response",
                    "type": "bytes",
                    "internalType": "bytes"
                },
                {
                    "name": "erro",
                    "type": "bytes",
                    "internalType": "bytes"
                },
                {
                    "name": "isAvailableToRetry",
                    "type": "bool",
                    "internalType": "bool"
                },
                {
                    "name": "isValid",
                    "type": "bool",
                    "internalType": "bool"
                }
            ],
            "stateMutability": "view"
        },
        {
            "type": "function",
            "name": "setDonHostedSecretsSlotId",
            "inputs": [
                {
                    "name": "_slot",
                    "type": "uint8",
                    "internalType": "uint8"
                }
            ],
            "outputs": [],
            "stateMutability": "nonpayable"
        },
        {
            "type": "function",
            "name": "setDonHostedSecretsVersion",
            "inputs": [
                {
                    "name": "_secretsVersion",
                    "type": "uint64",
                    "internalType": "uint64"
                }
            ],
            "outputs": [],
            "stateMutability": "nonpayable"
        },
        {
            "type": "function",
            "name": "supportsInterface",
            "inputs": [
                {
                    "name": "interfaceId",
                    "type": "bytes4",
                    "internalType": "bytes4"
                }
            ],
            "outputs": [
                {
                    "name": "",
                    "type": "bool",
                    "internalType": "bool"
                }
            ],
            "stateMutability": "view"
        },
        {
            "type": "function",
            "name": "validateStorage",
            "inputs": [
                {
                    "name": "_storageAddress",
                    "type": "address",
                    "internalType": "address"
                }
            ],
            "outputs": [],
            "stateMutability": "nonpayable"
        },
        {
            "type": "event",
            "name": "MainnetConnection_CLFunctionsRequestInitiated",
            "inputs": [
                {
                    "name": "requestId",
                    "type": "bytes32",
                    "indexed": false,
                    "internalType": "bytes32"
                }
            ],
            "anonymous": false
        },
        {
            "type": "event",
            "name": "MainnetConnection_DonHostedSecretsSlotUpdated",
            "inputs": [
                {
                    "name": "slot",
                    "type": "uint8",
                    "indexed": false,
                    "internalType": "uint8"
                }
            ],
            "anonymous": false
        },
        {
            "type": "event",
            "name": "MainnetConnection_DonHostedSecretsVersionUpdated",
            "inputs": [
                {
                    "name": "secretsVersion",
                    "type": "uint64",
                    "indexed": false,
                    "internalType": "uint64"
                }
            ],
            "anonymous": false
        },
        {
            "type": "event",
            "name": "MainnetConnection_FunctionCompleteFailure",
            "inputs": [],
            "anonymous": false
        },
        {
            "type": "event",
            "name": "MainnetConnection_RequestFailedAndItsAvailableToRetry",
            "inputs": [
                {
                    "name": "requestId",
                    "type": "bytes32",
                    "indexed": false,
                    "internalType": "bytes32"
                },
                {
                    "name": "err",
                    "type": "bytes",
                    "indexed": false,
                    "internalType": "bytes"
                }
            ],
            "anonymous": false
        },
        {
            "type": "event",
            "name": "MainnetConnection_RequestFailedBecauseStudentDoesNotHaveAProfile",
            "inputs": [
                {
                    "name": "err",
                    "type": "bytes",
                    "indexed": false,
                    "internalType": "bytes"
                }
            ],
            "anonymous": false
        },
        {
            "type": "event",
            "name": "MainnetConnection_RequestSucceed",
            "inputs": [
                {
                    "name": "requestId",
                    "type": "bytes32",
                    "indexed": false,
                    "internalType": "bytes32"
                },
                {
                    "name": "response",
                    "type": "bytes",
                    "indexed": false,
                    "internalType": "bytes"
                }
            ],
            "anonymous": false
        },
        {
            "type": "event",
            "name": "RequestFulfilled",
            "inputs": [
                {
                    "name": "id",
                    "type": "bytes32",
                    "indexed": true,
                    "internalType": "bytes32"
                }
            ],
            "anonymous": false
        },
        {
            "type": "event",
            "name": "RequestSent",
            "inputs": [
                {
                    "name": "id",
                    "type": "bytes32",
                    "indexed": true,
                    "internalType": "bytes32"
                }
            ],
            "anonymous": false
        },
        {
            "type": "event",
            "name": "RoleAdminChanged",
            "inputs": [
                {
                    "name": "role",
                    "type": "bytes32",
                    "indexed": true,
                    "internalType": "bytes32"
                },
                {
                    "name": "previousAdminRole",
                    "type": "bytes32",
                    "indexed": true,
                    "internalType": "bytes32"
                },
                {
                    "name": "newAdminRole",
                    "type": "bytes32",
                    "indexed": true,
                    "internalType": "bytes32"
                }
            ],
            "anonymous": false
        },
        {
            "type": "event",
            "name": "RoleGranted",
            "inputs": [
                {
                    "name": "role",
                    "type": "bytes32",
                    "indexed": true,
                    "internalType": "bytes32"
                },
                {
                    "name": "account",
                    "type": "address",
                    "indexed": true,
                    "internalType": "address"
                },
                {
                    "name": "sender",
                    "type": "address",
                    "indexed": true,
                    "internalType": "address"
                }
            ],
            "anonymous": false
        },
        {
            "type": "event",
            "name": "RoleRevoked",
            "inputs": [
                {
                    "name": "role",
                    "type": "bytes32",
                    "indexed": true,
                    "internalType": "bytes32"
                },
                {
                    "name": "account",
                    "type": "address",
                    "indexed": true,
                    "internalType": "address"
                },
                {
                    "name": "sender",
                    "type": "address",
                    "indexed": true,
                    "internalType": "address"
                }
            ],
            "anonymous": false
        },
        {
            "type": "event",
            "name": "StorageValidator_GetMessageFailed",
            "inputs": [
                {
                    "name": "student",
                    "type": "address",
                    "indexed": false,
                    "internalType": "address"
                },
                {
                    "name": "getImplementationError",
                    "type": "bytes",
                    "indexed": false,
                    "internalType": "bytes"
                }
            ],
            "anonymous": false
        },
        {
            "type": "event",
            "name": "StorageValidator_SetMessageFailed",
            "inputs": [
                {
                    "name": "student",
                    "type": "address",
                    "indexed": false,
                    "internalType": "address"
                },
                {
                    "name": "errorEmitted",
                    "type": "bytes",
                    "indexed": false,
                    "internalType": "bytes"
                }
            ],
            "anonymous": false
        },
        {
            "type": "event",
            "name": "StorageValidator_WrongReturn",
            "inputs": [
                {
                    "name": "student",
                    "type": "address",
                    "indexed": false,
                    "internalType": "address"
                },
                {
                    "name": "messageStored",
                    "type": "string",
                    "indexed": false,
                    "internalType": "string"
                },
                {
                    "name": "expectedMessage",
                    "type": "string",
                    "indexed": false,
                    "internalType": "string"
                }
            ],
            "anonymous": false
        },
        {
            "type": "error",
            "name": "AccessControlBadConfirmation",
            "inputs": []
        },
        {
            "type": "error",
            "name": "AccessControlUnauthorizedAccount",
            "inputs": [
                {
                    "name": "account",
                    "type": "address",
                    "internalType": "address"
                },
                {
                    "name": "neededRole",
                    "type": "bytes32",
                    "internalType": "bytes32"
                }
            ]
        },
        {
            "type": "error",
            "name": "EmptyArgs",
            "inputs": []
        },
        {
            "type": "error",
            "name": "EmptySource",
            "inputs": []
        },
        {
            "type": "error",
            "name": "MainnetConnection_RequestNotFulfilledOrSucceeded",
            "inputs": [
                {
                    "name": "failedRequestId",
                    "type": "bytes32",
                    "internalType": "bytes32"
                }
            ]
        },
        {
            "type": "error",
            "name": "MainnetConnection_UnexpectedRequestID",
            "inputs": [
                {
                    "name": "requestId",
                    "type": "bytes32",
                    "internalType": "bytes32"
                }
            ]
        },
        {
            "type": "error",
            "name": "NoInlineSecrets",
            "inputs": []
        },
        {
            "type": "error",
            "name": "OnlyRouterCanFulfill",
            "inputs": []
        },
        {
            "type": "error",
            "name": "Validator_AddressAlreadyStored",
            "inputs": [
                {
                    "name": "_contract",
                    "type": "address",
                    "internalType": "address"
                }
            ]
        },
        {
            "type": "error",
            "name": "Validator_InvalidAddress",
            "inputs": [
                {
                    "name": "_testContract",
                    "type": "address",
                    "internalType": "address"
                }
            ]
        }
    ],
    "bytecode": {
        "object": "0x610100604052348015610010575f80fd5b50604051613ce4380380613ce48339818101604052810190610032919061032b565b83838383808073ffffffffffffffffffffffffffffffffffffffff1660808173ffffffffffffffffffffffffffffffffffffffff1681525050508367ffffffffffffffff1660a08167ffffffffffffffff16815250508263ffffffff1660c08163ffffffff16815250508160e081815250506100b65f801b336100c460201b60201c565b50505050505050505061038f565b5f6100d583836101b960201b60201c565b6101af576001805f8581526020019081526020015f205f015f8473ffffffffffffffffffffffffffffffffffffffff1673ffffffffffffffffffffffffffffffffffffffff1681526020019081526020015f205f6101000a81548160ff02191690831515021790555061014c61021d60201b60201c565b73ffffffffffffffffffffffffffffffffffffffff168273ffffffffffffffffffffffffffffffffffffffff16847f2f8788117e7eff1d82e926ec794901d17c78024a50270940304540a733656f0d60405160405180910390a4600190506101b3565b5f90505b92915050565b5f60015f8481526020019081526020015f205f015f8373ffffffffffffffffffffffffffffffffffffffff1673ffffffffffffffffffffffffffffffffffffffff1681526020019081526020015f205f9054906101000a900460ff16905092915050565b5f33905090565b5f80fd5b5f67ffffffffffffffff82169050919050565b61024481610228565b811461024e575f80fd5b50565b5f8151905061025f8161023b565b92915050565b5f63ffffffff82169050919050565b61027d81610265565b8114610287575f80fd5b50565b5f8151905061029881610274565b92915050565b5f819050919050565b6102b08161029e565b81146102ba575f80fd5b50565b5f815190506102cb816102a7565b92915050565b5f73ffffffffffffffffffffffffffffffffffffffff82169050919050565b5f6102fa826102d1565b9050919050565b61030a816102f0565b8114610314575f80fd5b50565b5f8151905061032581610301565b92915050565b5f805f806080858703121561034357610342610224565b5b5f61035087828801610251565b94505060206103618782880161028a565b9350506040610372878288016102bd565b925050606061038387828801610317565b91505092959194509250565b60805160a05160c05160e05161391b6103c95f395f6114f401525f6114d301525f6114b201525f818161030d0152611bf7015261391b5ff3fe608060405234801561000f575f80fd5b50600436106100cd575f3560e01c8063a217fddf1161008a578063d547741f11610064578063d547741f1461020b578063d9dee3c214610227578063e15e017a14610243578063fdb742d914610276576100cd565b8063a217fddf146101b5578063bda54ca7146101d3578063c27e26cb146101ef576100cd565b806301ffc9a7146100d15780630ca7617514610101578063248a9ca31461011d5780632f2ff15d1461014d57806336568abe1461016957806391d1485414610185575b5f80fd5b6100eb60048036038101906100e691906124c0565b610292565b6040516100f89190612505565b60405180910390f35b61011b6004803603810190610116919061268d565b61030b565b005b61013760048036038101906101329190612715565b6103cd565b604051610144919061274f565b60405180910390f35b610167600480360381019061016291906127c2565b6103ea565b005b610183600480360381019061017e91906127c2565b61040c565b005b61019f600480360381019061019a91906127c2565b610487565b6040516101ac9190612505565b60405180910390f35b6101bd6104eb565b6040516101ca919061274f565b60405180910390f35b6101ed60048036038101906101e89190612715565b6104f1565b005b61020960048036038101906102049190612836565b610796565b005b610225600480360381019061022091906127c2565b6107f7565b005b610241600480360381019061023c9190612861565b610819565b005b61025d60048036038101906102589190612715565b610e02565b60405161026d94939291906128ec565b60405180910390f35b610290600480360381019061028b919061297a565b610f54565b005b5f7f7965db0b000000000000000000000000000000000000000000000000000000007bffffffffffffffffffffffffffffffffffffffffffffffffffffffff1916827bffffffffffffffffffffffffffffffffffffffffffffffffffffffff19161480610304575061030382610fc4565b5b9050919050565b7f000000000000000000000000000000000000000000000000000000000000000073ffffffffffffffffffffffffffffffffffffffff163373ffffffffffffffffffffffffffffffffffffffff1614610390576040517fc6829f8300000000000000000000000000000000000000000000000000000000815260040160405180910390fd5b61039b83838361102d565b827f85e1543bf2f84fe80c6badbce3648c8539ad1df4d2b3d822938ca0538be727e660405160405180910390a2505050565b5f60015f8381526020019081526020015f20600101549050919050565b6103f3826103cd565b6103fc81611229565b610406838361123d565b50505050565b610414611326565b73ffffffffffffffffffffffffffffffffffffffff168173ffffffffffffffffffffffffffffffffffffffff1614610478576040517f6697b23200000000000000000000000000000000000000000000000000000000815260040160405180910390fd5b610482828261132d565b505050565b5f60015f8481526020019081526020015f205f015f8373ffffffffffffffffffffffffffffffffffffffff1673ffffffffffffffffffffffffffffffffffffffff1681526020019081526020015f205f9054906101000a900460ff16905092915050565b5f801b81565b5f60035f8381526020019081526020015f206040518060a00160405290815f8201805480602002602001604051908101604052809291908181526020015f905b828210156105d9578382905f5260205f2001805461054e906129d2565b80601f016020809104026020016040519081016040528092919081815260200182805461057a906129d2565b80156105c55780601f1061059c576101008083540402835291602001916105c5565b820191905f5260205f20905b8154815290600101906020018083116105a857829003601f168201915b505050505081526020019060010190610531565b5050505081526020016001820180546105f1906129d2565b80601f016020809104026020016040519081016040528092919081815260200182805461061d906129d2565b80156106685780601f1061063f57610100808354040283529160200191610668565b820191905f5260205f20905b81548152906001019060200180831161064b57829003601f168201915b50505050508152602001600282018054610681906129d2565b80601f01602080910402602001604051908101604052809291908181526020018280546106ad906129d2565b80156106f85780601f106106cf576101008083540402835291602001916106f8565b820191905f5260205f20905b8154815290600101906020018083116106db57829003601f168201915b50505050508152602001600382015f9054906101000a900460ff161515151581526020016003820160019054906101000a900460ff161515151581525050905060011515816060015115150361078557816040517f0a94610200000000000000000000000000000000000000000000000000000000815260040161077c919061274f565b60405180910390fd5b610791815f0151611417565b505050565b5f801b6107a281611229565b8160025f6101000a81548160ff021916908360ff1602179055507f43366179823bb19cb50ce666a776b514a33123a8bec7391ebbab15b8e772510e826040516107eb9190612a11565b60405180910390a15050565b610800826103cd565b61080981611229565b610813838361132d565b50505050565b80600160ff165f808373ffffffffffffffffffffffffffffffffffffffff1673ffffffffffffffffffffffffffffffffffffffff1681526020019081526020015f205f9054906101000a900460ff1660ff16036108ad57806040517f7c9af9da0000000000000000000000000000000000000000000000000000000081526004016108a49190612a39565b60405180910390fd5b5f73ffffffffffffffffffffffffffffffffffffffff168173ffffffffffffffffffffffffffffffffffffffff160361091d57806040517f28cd34460000000000000000000000000000000000000000000000000000000081526004016109149190612a39565b60405180910390fd5b60015f808373ffffffffffffffffffffffffffffffffffffffff1673ffffffffffffffffffffffffffffffffffffffff1681526020019081526020015f205f6101000a81548160ff021916908360ff1602179055505f8290505f60608273ffffffffffffffffffffffffffffffffffffffff1663368b87726040518060400160405280600c81526020017f48656c6c6f204e6562756c6100000000000000000000000000000000000000008152506040518263ffffffff1660e01b81526004016109e79190612aa4565b5f604051808303815f87803b1580156109fe575f80fd5b505af1925050508015610a0f575060015b610a82573d805f8114610a3d576040519150601f19603f3d011682016040523d82523d5f602084013e610a42565b606091505b507fdad6d4539d9d1a8a2f7a6b831a9d8a03f217a5356160f57c27af2c8f436014453382604051610a74929190612ac4565b60405180910390a150610a91565b8180610a8d90612b28565b9250505b8273ffffffffffffffffffffffffffffffffffffffff1663ce6d41de6040518163ffffffff1660e01b81526004015f60405180830381865afa925050508015610afc57506040513d5f823e3d601f19601f82011682018060405250810190610af99190612c0d565b60015b610b6f573d805f8114610b2a576040519150601f19603f3d011682016040523d82523d5f602084013e610b2f565b606091505b507f69a9f48b3b7b3ddaec9b84a348c42ff925ff034498b45d3bda4ad06bbb20215d3382604051610b61929190612ac4565b60405180910390a150610b82565b8091508280610b7d90612b28565b935050505b6040518060400160405280600c81526020017f48656c6c6f204e6562756c61000000000000000000000000000000000000000081525080519060200120818051906020012014610c41577f50008d270875e1827b24ac70e7ab3f83ae6f196594b8d277562a1751e2158c8033826040518060400160405280600c81526020017f48656c6c6f204e6562756c610000000000000000000000000000000000000000815250604051610c3493929190612c54565b60405180910390a1610c50565b8180610c4c90612b28565b9250505b600260ff168210610dfb575f600567ffffffffffffffff811115610c7757610c76612569565b5b604051908082528060200260200182016040528015610caa57816020015b6060815260200190600190039081610c955790505b50905033604051602001610cbe9190612cdc565b604051602081830303815290604052815f81518110610ce057610cdf612cf6565b5b6020026020010181905250662386f26fc10000604051602001610d039190612d57565b60405160208183030381529060405281600181518110610d2657610d25612cf6565b5b60200260200101819052506001604051602001610d439190612d91565b60405160208183030381529060405281600281518110610d6657610d65612cf6565b5b602002602001018190525082604051602001610d829190612d91565b60405160208183030381529060405281600381518110610da557610da4612cf6565b5b60200260200101819052505f604051602001610dc19190612df0565b60405160208183030381529060405281600481518110610de457610de3612cf6565b5b6020026020010181905250610df881611417565b50505b5050505050565b6003602052805f5260405f205f91509050806001018054610e22906129d2565b80601f0160208091040260200160405190810160405280929190818152602001828054610e4e906129d2565b8015610e995780601f10610e7057610100808354040283529160200191610e99565b820191905f5260205f20905b815481529060010190602001808311610e7c57829003601f168201915b505050505090806002018054610eae906129d2565b80601f0160208091040260200160405190810160405280929190818152602001828054610eda906129d2565b8015610f255780601f10610efc57610100808354040283529160200191610f25565b820191905f5260205f20905b815481529060010190602001808311610f0857829003601f168201915b505050505090806003015f9054906101000a900460ff16908060030160019054906101000a900460ff16905084565b5f801b610f6081611229565b81600260016101000a81548167ffffffffffffffff021916908367ffffffffffffffff1602179055507fbe52775d585b3f64e69cd016f03aab2112db9d9d73fbe6564e5b3e906d4bd99282604051610fb89190612e19565b60405180910390a15050565b5f7f01ffc9a7000000000000000000000000000000000000000000000000000000007bffffffffffffffffffffffffffffffffffffffffffffffffffffffff1916827bffffffffffffffffffffffffffffffffffffffffffffffffffffffff1916149050919050565b5f60035f8581526020019081526020015f2090508060030160019054906101000a900460ff1661109457836040517fbdf633b000000000000000000000000000000000000000000000000000000000815260040161108b919061274f565b60405180910390fd5b5f60ff16835111156110f057828160010190816110b19190612fcf565b507fc5887c3a7517acc0acd968bc468487f448db79c5166d674e240596481fff0bba84846040516110e392919061309e565b60405180910390a1611223565b5f60ff16825111156111f5578181600201908161110d9190612fcf565b50630f13c67860e01b7bffffffffffffffffffffffffffffffffffffffffffffffffffffffff19168261113f906130ef565b7bffffffffffffffffffffffffffffffffffffffffffffffffffffffff1916036111b7576001816003015f6101000a81548160ff0219169083151502179055507fccb1b1750f117a3ec1f2e51faf150813a0e31642b2151f2da4f07f815cfd49d4826040516111ae9190613155565b60405180910390a15b7f6131c7f07c457f6a34400bf0203a068039f4da56588c6f6f2eaaa5e34848f42e84836040516111e892919061309e565b60405180910390a1611222565b7f74763fcee383a1b06f5d5c67553fae9b9a2c18c0ec776067a68246e27a51fa1d60405160405180910390a15b5b50505050565b61123a81611235611326565b611639565b50565b5f6112488383610487565b61131c576001805f8581526020019081526020015f205f015f8473ffffffffffffffffffffffffffffffffffffffff1673ffffffffffffffffffffffffffffffffffffffff1681526020019081526020015f205f6101000a81548160ff0219169083151502179055506112b9611326565b73ffffffffffffffffffffffffffffffffffffffff168273ffffffffffffffffffffffffffffffffffffffff16847f2f8788117e7eff1d82e926ec794901d17c78024a50270940304540a733656f0d60405160405180910390a460019050611320565b5f90505b92915050565b5f33905090565b5f6113388383610487565b1561140d575f60015f8581526020019081526020015f205f015f8473ffffffffffffffffffffffffffffffffffffffff1673ffffffffffffffffffffffffffffffffffffffff1681526020019081526020015f205f6101000a81548160ff0219169083151502179055506113aa611326565b73ffffffffffffffffffffffffffffffffffffffff168273ffffffffffffffffffffffffffffffffffffffff16847ff6391f5c32d9c69d2a47ea670b442974b53935d1edc7fd64eb21e047a839171b60405160405180910390a460019050611411565b5f90505b92915050565b5f6114206122e1565b61144e604051806103e001604052806103a681526020016135406103a691398261168a90919063ffffffff16565b61148760025f9054906101000a900460ff16600260019054906101000a900467ffffffffffffffff168361169a9092919063ffffffff16565b5f835111156114a4576114a383826117a790919063ffffffff16565b5b6115186114b0826117ee565b7f00000000000000000000000000000000000000000000000000000000000000007f00000000000000000000000000000000000000000000000000000000000000007f0000000000000000000000000000000000000000000000000000000000000000611bf3565b91506040518060a0016040528084815260200160405180602001604052805f815250815260200160405180602001604052805f81525081526020015f151581526020016001151581525060035f8481526020019081526020015f205f820151815f01908051906020019061158d929190612350565b5060208201518160010190816115a39190612fcf565b5060408201518160020190816115b99190612fcf565b506060820151816003015f6101000a81548160ff02191690831515021790555060808201518160030160016101000a81548160ff0219169083151502179055509050507fc5a74ba8bc6c2c663acfba7f2b4bf8b6bdc4c5bab8c7dda9ae500f59d8db61ec8260405161162b919061274f565b60405180910390a150919050565b6116438282610487565b6116865780826040517fe2517d3f00000000000000000000000000000000000000000000000000000000815260040161167d929190613175565b60405180910390fd5b5050565b611696825f8084611cd2565b5050565b5f6116a6610100611d78565b90506116f06040518060400160405280600681526020017f736c6f744944000000000000000000000000000000000000000000000000000081525082611d9d90919063ffffffff16565b6117068360ff1682611dc590919063ffffffff16565b61174e6040518060400160405280600781526020017f76657273696f6e0000000000000000000000000000000000000000000000000081525082611d9d90919063ffffffff16565b6117618282611dc590919063ffffffff16565b60028460200190600281111561177a5761177961319c565b5b9081600281111561178e5761178d61319c565b5b81525050805f01515f0151846080018190525050505050565b5f8151036117e1576040517ffe936cb700000000000000000000000000000000000000000000000000000000815260040160405180910390fd5b808260c001819052505050565b60605f6117fc610100611d78565b90506118466040518060400160405280600c81526020017f636f64654c6f636174696f6e000000000000000000000000000000000000000081525082611d9d90919063ffffffff16565b61186e835f0151600281111561185f5761185e61319c565b5b82611dd490919063ffffffff16565b6118b66040518060400160405280600881526020017f6c616e677561676500000000000000000000000000000000000000000000000081525082611d9d90919063ffffffff16565b6118de83604001515f8111156118cf576118ce61319c565b5b82611dd490919063ffffffff16565b6119266040518060400160405280600681526020017f736f75726365000000000000000000000000000000000000000000000000000081525082611d9d90919063ffffffff16565b61193d836060015182611d9d90919063ffffffff16565b5f8360a001515111156119f1576119926040518060400160405280600481526020017f617267730000000000000000000000000000000000000000000000000000000081525082611d9d90919063ffffffff16565b61199b81611e23565b5f5b8360a00151518110156119e6576119db8460a0015182815181106119c4576119c3612cf6565b5b602002602001015183611d9d90919063ffffffff16565b80600101905061199d565b506119f081611e4b565b5b5f8360800151511115611b30575f6002811115611a1157611a1061319c565b5b83602001516002811115611a2857611a2761319c565b5b03611a5f576040517fa80d31f700000000000000000000000000000000000000000000000000000000815260040160405180910390fd5b611aa76040518060400160405280600f81526020017f736563726574734c6f636174696f6e000000000000000000000000000000000081525082611d9d90919063ffffffff16565b611ad083602001516002811115611ac157611ac061319c565b5b82611dd490919063ffffffff16565b611b186040518060400160405280600781526020017f736563726574730000000000000000000000000000000000000000000000000081525082611d9d90919063ffffffff16565b611b2f836080015182611e7390919063ffffffff16565b5b5f8360c00151511115611be457611b856040518060400160405280600981526020017f627974657341726773000000000000000000000000000000000000000000000081525082611d9d90919063ffffffff16565b611b8e81611e23565b5f5b8360c0015151811015611bd957611bce8460c001518281518110611bb757611bb6612cf6565b5b602002602001015183611e7390919063ffffffff16565b806001019050611b90565b50611be381611e4b565b5b805f01515f0151915050919050565b5f807f000000000000000000000000000000000000000000000000000000000000000073ffffffffffffffffffffffffffffffffffffffff1663461d27628688600188886040518663ffffffff1660e01b8152600401611c57959493929190613203565b6020604051808303815f875af1158015611c73573d5f803e3d5ffd5b505050506040513d601f19601f82011682018060405250810190611c97919061326f565b9050807f1131472297a800fee664d1d89cfa8f7676ff07189ecc53f80bbb5f4969099db860405160405180910390a280915050949350505050565b5f815103611d0c576040517f22ce3edd00000000000000000000000000000000000000000000000000000000815260040160405180910390fd5b82845f01906002811115611d2357611d2261319c565b5b90816002811115611d3757611d3661319c565b5b815250508184604001905f811115611d5257611d5161319c565b5b90815f811115611d6557611d6461319c565b5b8152505080846060018190525050505050565b611d806123a7565b611d8d815f015183611e9b565b505f816020018181525050919050565b611daa8260038351611f11565b611dc081835f01516120b190919063ffffffff16565b505050565b611dd0825f83611f11565b5050565b611df560026005600660ff16901b17835f01516120cd90919063ffffffff16565b50611e1f8282604051602001611e0b91906132a9565b604051602081830303815290604052611e73565b5050565b611e2e816004612134565b600181602001818151611e4191906132c2565b9150818152505050565b611e56816007612134565b600181602001818151611e6991906132f5565b9150818152505050565b611e808260028351611f11565b611e9681835f01516120b190919063ffffffff16565b505050565b611ea36123c6565b5f602083611eb19190613355565b14611edd57602082611ec39190613355565b6020611ecf91906132f5565b82611eda91906132c2565b91505b818360200181815250506040518084525f815282810160200181811015611f02575f80fd5b80604052505082905092915050565b60178167ffffffffffffffff1611611f4b57611f458160058460ff16901b60ff1617845f01516120cd90919063ffffffff16565b506120ac565b60ff8167ffffffffffffffff1611611fa757611f7d601860058460ff16901b17845f01516120cd90919063ffffffff16565b50611fa18167ffffffffffffffff166001855f01516121599092919063ffffffff16565b506120ab565b61ffff8167ffffffffffffffff161161200457611fda601960058460ff16901b17845f01516120cd90919063ffffffff16565b50611ffe8167ffffffffffffffff166002855f01516121599092919063ffffffff16565b506120aa565b63ffffffff8167ffffffffffffffff161161206357612039601a60058460ff16901b17845f01516120cd90919063ffffffff16565b5061205d8167ffffffffffffffff166004855f01516121599092919063ffffffff16565b506120a9565b612083601b60058460ff16901b17845f01516120cd90919063ffffffff16565b506120a78167ffffffffffffffff166008855f01516121599092919063ffffffff16565b505b5b5b5b505050565b6120b96123c6565b6120c5838384516121e2565b905092915050565b6120d56123c6565b5f835f01515190505f6001826120eb91906132c2565b90508460200151821061210f5761210e856002836121099190613385565b6122bf565b5b84516020838201018581538151831115612127578282525b5050849250505092915050565b612154601f60058360ff16901b17835f01516120cd90919063ffffffff16565b505050565b6121616123c6565b5f845f01515190505f818461217691906132c2565b9050856020015181111561219b5761219a866002836121959190613385565b6122bf565b5b5f6001856101006121ac91906134f5565b6121b691906132f5565b9050865182810187831982511617815281518411156121d3578382525b50508693505050509392505050565b6121ea6123c6565b82518211156121f7575f80fd5b5f845f01515190505f838261220c91906132c2565b90508560200151811115612231576122308660028361222b9190613385565b6122bf565b5b5f808751805185602083010193508085111561224b578482525b60208901925050505b60208610612292578051825260208261226d91906132c2565b915060208161227c91906132c2565b905060208661228b91906132f5565b9550612254565b5f6001876020036101000a0390508019825116818451168181178552505050879450505050509392505050565b5f825f015190506122d08383611e9b565b506122db83826120b1565b50505050565b6040518060e001604052805f60028111156122ff576122fe61319c565b5b81526020015f60028111156123175761231661319c565b5b81526020015f8081111561232e5761232d61319c565b5b8152602001606081526020016060815260200160608152602001606081525090565b828054828255905f5260205f20908101928215612396579160200282015b828111156123955782518290816123859190612fcf565b509160200191906001019061236e565b5b5090506123a391906123df565b5090565b60405180604001604052806123ba6123c6565b81526020015f81525090565b6040518060400160405280606081526020015f81525090565b5b808211156123fe575f81816123f59190612402565b506001016123e0565b5090565b50805461240e906129d2565b5f825580601f1061241f575061243c565b601f0160209004905f5260205f209081019061243b919061243f565b5b50565b5b80821115612456575f815f905550600101612440565b5090565b5f604051905090565b5f80fd5b5f80fd5b5f7fffffffff0000000000000000000000000000000000000000000000000000000082169050919050565b61249f8161246b565b81146124a9575f80fd5b50565b5f813590506124ba81612496565b92915050565b5f602082840312156124d5576124d4612463565b5b5f6124e2848285016124ac565b91505092915050565b5f8115159050919050565b6124ff816124eb565b82525050565b5f6020820190506125185f8301846124f6565b92915050565b5f819050919050565b6125308161251e565b811461253a575f80fd5b50565b5f8135905061254b81612527565b92915050565b5f80fd5b5f80fd5b5f601f19601f8301169050919050565b7f4e487b71000000000000000000000000000000000000000000000000000000005f52604160045260245ffd5b61259f82612559565b810181811067ffffffffffffffff821117156125be576125bd612569565b5b80604052505050565b5f6125d061245a565b90506125dc8282612596565b919050565b5f67ffffffffffffffff8211156125fb576125fa612569565b5b61260482612559565b9050602081019050919050565b828183375f83830152505050565b5f61263161262c846125e1565b6125c7565b90508281526020810184848401111561264d5761264c612555565b5b612658848285612611565b509392505050565b5f82601f83011261267457612673612551565b5b813561268484826020860161261f565b91505092915050565b5f805f606084860312156126a4576126a3612463565b5b5f6126b18682870161253d565b935050602084013567ffffffffffffffff8111156126d2576126d1612467565b5b6126de86828701612660565b925050604084013567ffffffffffffffff8111156126ff576126fe612467565b5b61270b86828701612660565b9150509250925092565b5f6020828403121561272a57612729612463565b5b5f6127378482850161253d565b91505092915050565b6127498161251e565b82525050565b5f6020820190506127625f830184612740565b92915050565b5f73ffffffffffffffffffffffffffffffffffffffff82169050919050565b5f61279182612768565b9050919050565b6127a181612787565b81146127ab575f80fd5b50565b5f813590506127bc81612798565b92915050565b5f80604083850312156127d8576127d7612463565b5b5f6127e58582860161253d565b92505060206127f6858286016127ae565b9150509250929050565b5f60ff82169050919050565b61281581612800565b811461281f575f80fd5b50565b5f813590506128308161280c565b92915050565b5f6020828403121561284b5761284a612463565b5b5f61285884828501612822565b91505092915050565b5f6020828403121561287657612875612463565b5b5f612883848285016127ae565b91505092915050565b5f81519050919050565b5f82825260208201905092915050565b8281835e5f83830152505050565b5f6128be8261288c565b6128c88185612896565b93506128d88185602086016128a6565b6128e181612559565b840191505092915050565b5f6080820190508181035f83015261290481876128b4565b9050818103602083015261291881866128b4565b905061292760408301856124f6565b61293460608301846124f6565b95945050505050565b5f67ffffffffffffffff82169050919050565b6129598161293d565b8114612963575f80fd5b50565b5f8135905061297481612950565b92915050565b5f6020828403121561298f5761298e612463565b5b5f61299c84828501612966565b91505092915050565b7f4e487b71000000000000000000000000000000000000000000000000000000005f52602260045260245ffd5b5f60028204905060018216806129e957607f821691505b6020821081036129fc576129fb6129a5565b5b50919050565b612a0b81612800565b82525050565b5f602082019050612a245f830184612a02565b92915050565b612a3381612787565b82525050565b5f602082019050612a4c5f830184612a2a565b92915050565b5f81519050919050565b5f82825260208201905092915050565b5f612a7682612a52565b612a808185612a5c565b9350612a908185602086016128a6565b612a9981612559565b840191505092915050565b5f6020820190508181035f830152612abc8184612a6c565b905092915050565b5f604082019050612ad75f830185612a2a565b8181036020830152612ae981846128b4565b90509392505050565b7f4e487b71000000000000000000000000000000000000000000000000000000005f52601160045260245ffd5b5f819050919050565b5f612b3282612b1f565b91507fffffffffffffffffffffffffffffffffffffffffffffffffffffffffffffffff8203612b6457612b63612af2565b5b600182019050919050565b5f67ffffffffffffffff821115612b8957612b88612569565b5b612b9282612559565b9050602081019050919050565b5f612bb1612bac84612b6f565b6125c7565b905082815260208101848484011115612bcd57612bcc612555565b5b612bd88482856128a6565b509392505050565b5f82601f830112612bf457612bf3612551565b5b8151612c04848260208601612b9f565b91505092915050565b5f60208284031215612c2257612c21612463565b5b5f82015167ffffffffffffffff811115612c3f57612c3e612467565b5b612c4b84828501612be0565b91505092915050565b5f606082019050612c675f830186612a2a565b8181036020830152612c798185612a6c565b90508181036040830152612c8d8184612a6c565b9050949350505050565b5f8160601b9050919050565b5f612cad82612c97565b9050919050565b5f612cbe82612ca3565b9050919050565b612cd6612cd182612787565b612cb4565b82525050565b5f612ce78284612cc5565b60148201915081905092915050565b7f4e487b71000000000000000000000000000000000000000000000000000000005f52603260045260245ffd5b5f8160c01b9050919050565b5f612d3982612d23565b9050919050565b612d51612d4c8261293d565b612d2f565b82525050565b5f612d628284612d40565b60088201915081905092915050565b5f819050919050565b612d8b612d8682612b1f565b612d71565b82525050565b5f612d9c8284612d7a565b60208201915081905092915050565b5f8160f81b9050919050565b5f612dc182612dab565b9050919050565b5f612dd282612db7565b9050919050565b612dea612de5826124eb565b612dc8565b82525050565b5f612dfb8284612dd9565b60018201915081905092915050565b612e138161293d565b82525050565b5f602082019050612e2c5f830184612e0a565b92915050565b5f819050815f5260205f209050919050565b5f6020601f8301049050919050565b5f82821b905092915050565b5f60088302612e8e7fffffffffffffffffffffffffffffffffffffffffffffffffffffffffffffffff82612e53565b612e988683612e53565b95508019841693508086168417925050509392505050565b5f819050919050565b5f612ed3612ece612ec984612b1f565b612eb0565b612b1f565b9050919050565b5f819050919050565b612eec83612eb9565b612f00612ef882612eda565b848454612e5f565b825550505050565b5f90565b612f14612f08565b612f1f818484612ee3565b505050565b5b81811015612f4257612f375f82612f0c565b600181019050612f25565b5050565b601f821115612f8757612f5881612e32565b612f6184612e44565b81016020851015612f70578190505b612f84612f7c85612e44565b830182612f24565b50505b505050565b5f82821c905092915050565b5f612fa75f1984600802612f8c565b1980831691505092915050565b5f612fbf8383612f98565b9150826002028217905092915050565b612fd88261288c565b67ffffffffffffffff811115612ff157612ff0612569565b5b612ffb82546129d2565b613006828285612f46565b5f60209050601f831160018114613037575f8415613025578287015190505b61302f8582612fb4565b865550613096565b601f19841661304586612e32565b5f5b8281101561306c57848901518255600182019150602085019450602081019050613047565b868310156130895784890151613085601f891682612f98565b8355505b6001600288020188555050505b505050505050565b5f6040820190506130b15f830185612740565b81810360208301526130c381846128b4565b90509392505050565b5f819050602082019050919050565b5f6130e6825161246b565b80915050919050565b5f6130f98261288c565b82613103846130cc565b905061310e816130db565b9250600482101561314e576131497fffffffff0000000000000000000000000000000000000000000000000000000083600403600802612e53565b831692505b5050919050565b5f6020820190508181035f83015261316d81846128b4565b905092915050565b5f6040820190506131885f830185612a2a565b6131956020830184612740565b9392505050565b7f4e487b71000000000000000000000000000000000000000000000000000000005f52602160045260245ffd5b5f61ffff82169050919050565b6131df816131c9565b82525050565b5f63ffffffff82169050919050565b6131fd816131e5565b82525050565b5f60a0820190506132165f830188612e0a565b818103602083015261322881876128b4565b905061323760408301866131d6565b61324460608301856131f4565b6132516080830184612740565b9695505050505050565b5f8151905061326981612527565b92915050565b5f6020828403121561328457613283612463565b5b5f6132918482850161325b565b91505092915050565b6132a381612b1f565b82525050565b5f6020820190506132bc5f83018461329a565b92915050565b5f6132cc82612b1f565b91506132d783612b1f565b92508282019050808211156132ef576132ee612af2565b5b92915050565b5f6132ff82612b1f565b915061330a83612b1f565b925082820390508181111561332257613321612af2565b5b92915050565b7f4e487b71000000000000000000000000000000000000000000000000000000005f52601260045260245ffd5b5f61335f82612b1f565b915061336a83612b1f565b92508261337a57613379613328565b5b828206905092915050565b5f61338f82612b1f565b915061339a83612b1f565b92508282026133a881612b1f565b915082820484148315176133bf576133be612af2565b5b5092915050565b5f8160011c9050919050565b5f808291508390505b600185111561341b578086048111156133f7576133f6612af2565b5b60018516156134065780820291505b8081029050613414856133c6565b94506133db565b94509492505050565b5f8261343357600190506134ee565b81613440575f90506134ee565b816001811461345657600281146134605761348f565b60019150506134ee565b60ff84111561347257613471612af2565b5b8360020a91508482111561348957613488612af2565b5b506134ee565b5060208310610133831016604e8410600b84101617156134c45782820a9050838111156134bf576134be612af2565b5b6134ee565b6134d184848460016133d2565b925090508184048111156134e8576134e7612af2565b5b81810290505b9392505050565b5f6134ff82612b1f565b915061350a83612b1f565b92506135377fffffffffffffffffffffffffffffffffffffffffffffffffffffffffffffffff8484613424565b90509291505056fe72657475726e20617761697420286173796e63202829203d3e207b2072657175697265282240636861696e6c696e6b2f656e762d656e6322292e636f6e66696728293b20636f6e737420657468657273203d20617761697420696d706f727428226e706d3a65746865727340362e31302e3022293b206966202821736563726574732e505249564154455f4b455929207468726f77206e6577204572726f722831293b206966202821736563726574732e5250435f55524c29207468726f77206e6577204572726f722832293b206966202821736563726574732e434f4e54524143545f4144445245535329207468726f77206e6577204572726f722833293b2069662028617267732e6c656e677468203c203529207468726f77206e6577204572726f722834293b20636f6e7374205b612c622c632c642c655d203d20617267733b2069662028216574686572732e69734164647265737328612929207468726f77206e6577204572726f722835293b20636f6e73742066203d206e6577206574686572732e4a736f6e52706350726f766964657228736563726574732e5250435f55524c292c2067203d206e6577206574686572732e57616c6c657428736563726574732e505249564154455f4b45592c2066292c2068203d206e6577206574686572732e436f6e747261637428736563726574732e434f4e54524143545f414444524553532c205b2266756e6374696f6e20656d697453747564656e7452657761726428616464726573732c75696e743235362c75696e743235362c75696e743235362c626f6f6c29225d2c2067293b20747279207b20636f6e73742069203d20617761697420682e656d697453747564656e7452657761726428612c206574686572732e746f426967496e742862292c206574686572732e746f426967496e742863292c206574686572732e746f426967496e742864292c20747970656f662065203d3d3d2022737472696e6722203f20652e746f4c6f776572436173652829203d3d3d20227472756522203a20212165293b20617761697420692e7761697428293b2072657475726e2046756e6374696f6e732e656e636f6465537472696e672822537563636573733a2022202b20692e68617368293b207d20636174636820286a29207b207468726f77206e6577204572726f722860457865637574696f6e204572726f723a20247b286a20262620286a2e726561736f6e207c7c206a2e6d6573736167652929207c7c20537472696e67286a297d60293b207d207d2928293ba2646970667358221220301a62e68586092c6e834355be70e1c3e781c5f4f33c3fa84a4adec6a51fb87464736f6c634300081a0033",
        "linkReferences": {}
    },
    "methodIdentifiers": {
        "DEFAULT_ADMIN_ROLE()": "a217fddf",
        "getRoleAdmin(bytes32)": "248a9ca3",
        "grantRole(bytes32,address)": "2f2ff15d",
        "handleOracleFulfillment(bytes32,bytes,bytes)": "0ca76175",
        "hasRole(bytes32,address)": "91d14854",
        "renounceRole(bytes32,address)": "36568abe",
        "retryFailedRequest(bytes32)": "bda54ca7",
        "revokeRole(bytes32,address)": "d547741f",
        "s_requestStorage(bytes32)": "e15e017a",
        "setDonHostedSecretsSlotId(uint8)": "c27e26cb",
        "setDonHostedSecretsVersion(uint64)": "fdb742d9",
        "supportsInterface(bytes4)": "01ffc9a7",
        "validateStorage(address)": "d9dee3c2"
    },
    "id": 79
}